:03000000020006F5
:20005F007508C07509F9750AA4750BB0750C99750D92750E82750FF8751080751190751229
:20007F00887513837514C67515A175168675178E7518FE7519FD751AFB751BF7751CEF750D
:0B009F001DDF751EBF751F7F020003F0
:030003000200CB2D
:2000AA00AE82AF838E048F051EBEFF011FEC4D600F7C737D001CBCFF011DEC4D70F780E4A6
:2000CA00227E007F00EE2418F987A0EE2408F987809003E8C007C0061200AAD006D0070E14
:1000EA00BE00010FC3EE9408EF940040D880D222DC
:06003500E478FFF6D8FD9F
:200013007900E94400601B7A009000FE780075A000E493F2A308B8000205A0D9F4DAF27596
:02003300A0FF2C
:20003B007800E84400600A790075A000E4F309D8FC7800E84400600C7900900000E4F0A3C5
:04005B00D8FCD9FAFA
:0D00060075811F1200FAE5826003020003FD
:0400FA0075820022E9
:00000001FF
